:400000000080002011000000050400000504000008B5044B1A6803F53F5302331A6000F011FA00BFFA46004010B5054C237833B9044B13B10448AFF300800123237010BD5A
:400040004881FF1F00000000EC150000084B10B51BB108490848AFF300800848036803B910BD074B002BFBD0BDE81040184700BF000000004C81FF1FEC150000C880FF1F00
:400080000000000000B5A1B000F042FD03460A4A8021684600F078FE684600F0DBFD4B2000F02AFD00F03AFD4FF4967000F0FEFA21B05DF804FB00BFF015000008B562B6AB
:4000C00000F0BCFA00F04EFA00F074FA00F0DEFA00F09EFC00F0CEFB00F0B8FC00F0E8FB00F0C2FC00F0F2FB00F05AFD024800F0EBFD00F095FDFEE785000000FEE700BFBE
:40010000F0B40022174611E050F82760F3B226F0FF0608E001EB420511F812406D78A5550132013BDBB2002BF4D101371F2FEBD9F0BC704708B50A46002100F01CFE08BD31
:40014000F8B51C4B1B78DBB21B4E3478E4B21B4F3D78EDB203F00701194A11701B090132137044F00303337045F003033B70C022144B1A704023144A137002321370063268
:400180001370023213700422104B1A70202203331A7008230E490B7003310A700D4A13700A2000F099FA3D70347044220A4B1A70F8BD00BFCF010049F8460040F9460040A6
:4001C0006E5800402D51004001590040205B0040285B0040585B00407658004008B500F0BFFD08BD38B50122324B1A801823324A13703321023211800232137040F2AF41A1
:40020000023211800232137008222C492C48FFF7E5FF02222B4B1A7008224FF040231A70032103F500731970274B1B78DBB227490B70274B1A8041F25122023B1A80002499
:4002400019250CE0234B1B7803F0010343EA440404F003044FF4F07000F046FD013D0DB1032CEFD115B90320FFF748FF1A4B4FF480721A8007221A70002218490A704820B1
:40028000023108701A700222033B1A7004220A331A70134A137843F007031370013A137843F003031370013A137843F08003137038BD00BF804000408240004020070048E2
:4002C000004100400043004008010049A146004022420040254200400440004006400040A243004038B572B6354A137843F00403137000240CE0334D630019194A00114665
:400300002A44084691882858FFF714FF0134E4B2092CF0D900240CE02A48A20011194B000344B3F84420196CD86BFFF757FF0134E4B2022CF0D924494FF09040FFF7E0FE81
:40034000224A234B1A60234A137843F0020313701032137843F0020313701F4C237843F040032370A2F58632513A137843F0100313700A2219491A48FFF730FF0822194910
:400380001948FFF72BFF082218491948FFF726FF184A137843F008031370174D61232B70FFF720FF81232B700122144B1A70FFF7C7FE0E2221461248FFF710FF38BD00BFBF
:4003C000E84600400416000080000048040404E4D806014003500140A043004004070048C051004010070048125100401807004822510040224300400048004004000840AE
:40040000B043004008B500F07FFC03680C2B00D1FEE7FEE708B5094B1A681044084BC31A802B02DC054B186005E000F06DFC0C2303604FF0FF32104608BD00BFCC80FF1F38
:400440009081FF1F08B5104E104D16E029686B68AC68002204E051F8040B43F8040B0432A242F8D1E868002203E0002143F8041B04328242F9D11035013E002EE6D100F0EF
:4004800049FCFFF71BFEFEE701000000B816000008B5104A104B1A60104A136843F40073136000230AE0032B03D80D4A52F8231000E00C490C4A42F8231001332F2BF2D91B
:4004C0000A4B1A780A4B1A70074A0A4B1A60FFF709FF08BD0004FA050CED00E014ED00E000000000050400000080FF1FBC760040C080FF1F08ED00E0024A137843F08003BD
:40050000137070477C640040014B1870704700BF0C640040014B1870704700BF4C640040014B1870704700BF2C640040014B1870704700BF8C640040014B1878704700BF47
:400540006C640040014B1878704700BF5C64004008B501E0FFF7F6FFFFF7EEFF10F0100FF8D108BD10B5114A137803F0C00343F0090313700E4C237843F001032370FF20FF
:40058000FFF7C2FFFF20FFF7C5FF0020FFF7C8FF0020FFF7CBFF00F0AFFB237843F01003237000F0ADFBFFF7D3FF10BD7C6400409C64004008B5054B1B7823B9FFF7D2FF10
:4005C0000122024B1A70FFF797FF08BD6481FF1F024A137843F08003137070477D640040014B1870704700BF0D640040014B1870704700BF4D640040014B1870704700BF45
:400600002D640040014B1870704700BF8D640040014B1878704700BF6D640040014B1878704700BF5D64004008B501E0FFF7F6FFFFF7EEFF10F0100FF8D108BD10B5114A7F
:40064000137803F0C00343F0090313700E4C237843F001032370FF20FFF7C2FFFF20FFF7C5FF0020FFF7C8FF0020FFF7CBFF00F043FB237843F01003237000F041FBFFF788
:40068000D3FF10BD7D6400409D64004008B5054B1B7823B9FFF7D2FF0122024B1A70FFF797FF08BD6581FF1F01BE704710B5044605E0084B186800F017FBA4F50044B4F5E2
:4006C000004FF6D8034B586800FB04F000F00CFB10BD00BFD080FF1F08B5034B1B7A00FB03F000F001FB08BDD080FF1F70B504460E46074B1D681F2802D90020FFF7D4FF9D
:4007000004F01F04103455F8240045F8246070BD08ED00E038B504460D46072902D90020FFF7C2FF1F2C02D90020FFF7BDFF04F01F0000F1604000F564406D01EDB2057007
:4007400038BD00BF08B50A280FD00C2802D0082806D102E04FF4805209E04FF4807206E00020FFF7A1FF002201E04FF480620021094B198042F2107303FB02F303F6C41389
:40078000064A82FB0302DB17C3EBE223044A1360044B198008BD00BF7C81FF1FAD8BDB687881FF1F7E81FF1F10B500F0A5FA04461E4A137843F0020313701032137843F07F
:4007C000020313701A3A137843F0010313701032137843F00103137002F5AA521A32137843F0030313701822114B1A70013B1A7842F040021A701A7802F0FC021A70C822E9
:40080000053B1A700222A3F59753123B1A70094A137843F0080313700A20FFF75DFF0422054B1A60204600F06BFA10BDAB4300400E5900402F5B004080E200E010B50446EE
:400840000A280DD00C2802D0082804D101E0C22207E0422205E00020FFF726FFC22200E08222034B1A702046FFF76CFF10BD00BF0A59004008B5102000F000F907210220D8
:40088000FFF748FF07490220FFF730FF064A137843F0060313700820FFF7D0FF0022034B1A8008BDDD080000095900407481FF1F08B5054B1B7823B9FFF7DCFF0122024BB7
:4008C0001A70FFF771FF08BD6681FF1F024A137843F001031370704708590040704700BF08B50A280FD00C2802D0082806D102E04FF4805209E04FF4807206E00020FFF7F3
:40090000D3FE002201E04FF480620021094B198042F2107303FB02F303F6C413064A82FB0302DB17C3EBE223044A1360044B198008BD00BF8481FF1FAD8BDB688881FF1FCD
:400940008281FF1F38B500F0D7F904461E4A137843F0010313701032137843F0010313701A3A137843F0020313701032137843F00203137002F5AA521232137843F003030E
:4009800013701822114B1A70013B1A7842F040021A701A7802F0FC021A70C822053B1A700225A3F597530C3B1D70094A137843F0080313700A20FFF78FFE064B1D6020460B
:4009C00000F09EF938BD00BFAB43004006590040275B004080E200E010B504460A280DD00C2802D0082804D101E0C22207E0422205E00020FFF758FEC22200E08222034BAB
:400A00001A702046FFF76CFF10BD00BF0259004008B5102000F03CF807210120FFF77AFE07490120FFF762FE064A137843F0060313700820FFF7D0FF0022034B1A8008BD59
:400A4000790A0000015900408081FF1F08B5054B1B7823B9FFF7DCFF0122024B1A70FFF771FF08BD6781FF1F024A137843F001031370704700590040704700BF034B1A788B
:400A800000F0F80010431870704700BF02410040034B1A7800F0F80010431870704700BF0641004008B500F027F90B4A137843F020031370023A137843F01003137002F5CD
:400AC0008072137843F01003137000F019F90822024B1A6008BD00BF9764004000E100E0014B1878704700BF65640040014B1878704700BF65650040034B1B7813F0020F91
:400B0000FAD0024B187070476564004047650040014B1878704700BF5765004008B501E00A4B1B780A4B1B7813F0080FF8D100F0E3F8084B1A7842F003021A701A7802F0D6
:400B4000FC021A7000F0DCF808BD00BF57650040656500409765004038B507250C4B1D7008240C4B1C600C490320FFF7BFFD29460320FFF7CFFDFFF7D1FFFFF7B1FFFFF787
:400B8000B5FF0022054B1A7003F580731C7038BD8764004080E100E0BD0B00008564004008B5054B1B7823B9FFF7D6FF0122024B1A70FFF777FF08BD6881FF1F704700BFCD
:400BC0007222084B1A702022033B1A700622A3F5B0731A70472210331A70002252331A70704700BF8765004010B500F085F804460A4A137843F020031370033A137843F0D5
:400C000010031370FE3A137843F01003137000F033F8204600F074F810BD00BF9765004008B5054B1B7823B9FFF7CAFF0122024B1A70FFF7D9FF08BD6981FF1F034B1B783C
:400C400013F0040FFAD1024B18707047666400404764004038B5074B1B782BB938BDFFF7EDFF0134A4B201E005460024285D0028F5D138BD6981FF1F054A137843F0020328
:400C800013701032137843F002031370704700BFA2430040014B1B681864704708ED00E04001C0B2014B1870704700BF00E400E00122014B1A60704700E100E00122014B26
:400CC0001A60704780E100E010B50446FFF7F6FF2046FFF7DFFF0720FFF7E2FFFFF7E8FF10BD00BF000000000230800803D000BF01380046FCD17047EFF3108072B6704747
:400D000080F31088704700BF014B1868704700BF4081FF1F0E4B70B51E460E4C0025E41AA410A54204D056F8253098470135F8E700F0B0FC084B094C1E46E41AA41000252D
:400D4000A54204D056F8253098470135F8E770BDA0160000A0160000A0160000A816000010B5431E0A44914204D011F8014B03F8014FF8E710BD03460244934202D003F87C
:400D8000011BFAE7704700000CB430B5164B0C1E9DB01D6804DA8B232B604FF0FF301EE04FF40273ADF814300CBF234604F1FF33049307934FF6FF7302900690ADF8163003
:400DC000209A21AB02A92846019300F069F8431CBCBF8B232B6014B1029B00221A701DB0BDE8304002B070474081FF1F2DE9F0478E6882469E420C46914698463ED88A8909
:400E000012F4906F3AD02568096902236F1A656905EB450595FBF3F57B1C43449D4238BF1D4653050FD5294600F040FB064698B13A462169FFF794FFA38923F4906343F0B8
:400E40008003A38113E02A4600F08EFB064670B92169504600F0DEFA0C23CAF80030A3894FF0FF3043F04003A381BDE8F08726613E44266046466561ED1BA560464528BFC1
:400E8000464649463246206800F0A8FAA36800209B1BA36023681E442660BDE8F08700002DE9F04F9DB003938B8980461C060D4616460DD50B695BB9402100F0F7FA2860FB
:400EC000286118B90C23C8F80030CDE040236B610023099320238DF82930DFF89CB130238DF82A3037463C4614F8013B1BB9B7EB060910D003E0252BF9D02746F3E74B46E7
:400F0000324629464046FFF771FF013000F0A780099B4B4409933B78002B00F0A08000234FF0FF3204930793059206938DF853301A930126052221784E4800F041FA671C05
:400F4000049B38B14B4A3C46801A06FA00F018430490EFE7D90644BF20228DF853201A0744BF2B228DF8532022782A2A03D0079A00210A200BE0039A111D12680391002A63
:400F800010DA524243F00200079204900BE027463B780134303B092B03D800FB02320121F5E701B107923B782E2B1ED17B782A2B0AD1039B02371A1D1B680392002BB8BF39
:400FC0004FF0FF33059310E0002319460593781C0A2407463A780130303A092A03D804FB01210123F5E703B1059103223978224800F0E6F940B14023CBEB000003FA00F003
:40100000049B013718430490397806221B487E1C8DF8281000F0D4F988B1194B33B9039B073323F007030833039314E003AB00932A46144B04A94046AFF3008007E003AB5D
:4010400000932A460F4B04A9404600F093F8B0F1FF3F824603D0099B5344099342E7AB895B0601D4099801E04FF0FF301DB0BDE8F08F00BF60160000661600006A1600006F
:4010800000000000ED0D00002DE9F04791461F460A698B6806469342B8BF1346C9F8003091F843200C46DDF8208012B10133C9F800302368990642BFD9F800300233C9F8A8
:4010C0000030256815F0060510D104F1190A07E00123524639463046C04701301AD00135E368D9F800209B1A9D42F1DB94F843302268003318BF012392060FD5E118302022
:4011000081F843005A1C94F845102244023382F8431003E04FF0FF30BDE8F08704F1430239463046C0470130F4D02268D9F80050E36802F00602042A08BF5D1B2269A368A9
:401140000CBF25EAE57500259342C4BF9B1AED184FF000091A344D4509D00123224639463046C0470130D5D009F10109F3E70020BDE8F0872DE9F04317460A7E85B06E2A90
:40118000984606460C460C9B01F1430E00F0AE8011D8632A22D009D8002A00F0BB80582A40F0CA8081F84520834955E0642A1ED0692A1CD0C0E0732A00F0B08009D86F2A60
:4011C0002ED0702A40F0B8800A6842F020020A603EE0752A24D0782A3AD0ADE01A6801F14205111D1960136884F84230A8E021681A6811F0800F02D0111D196008E011F085
:40120000400F02F10401196002D0B2F9003000E01368002B3CDA2D225B4284F8432037E021681A6811F0800F02D0111D196007E011F0400F02F10401196001D0138800E0BB
:401240001368227E5C496F2A14BF0A2208221BE078225A4984F845202268186812F0800F00F104051D6003D1550601D5038800E00368D00744BF42F0200222601BB92268D8
:4012800022F0200222601022002084F8430001E049490A226568002DA56008DB206820F0040020602BB9002D7DD175460CE0002B79D07546B3FBF2F002FB1033CB5C05F8A1
:4012C000013D03460028F5D1082A0BD12368DA0708D5236962689A42DEBF302305F8013C05F1FF35C5EB0E0323612EE008681A6810F0800F496903D0101D1860136808E03B
:4013000010F0400F02F104001860136801D0198000E0196000232361754616E01A68111D1960156800216268284600F049F808B1401B6060636804E004F1420584F842208C
:4013400001232361002384F84330CDF800803B4603AA21463046FFF797FE013002D14FF0FF3026E023692A4639463046C0470130F5D023689B0710D5002504F1190907E03D
:4013800001234A4639463046C0470130E7D00135E368039A9B1A9D42F2DBE068039B9842B8BF184605E00B7804F1420584F842308AE705B0BDE8F083711600008216000092
:4013C00010B5C9B202449042034605D01C7801308C42F8D1184610BD002010BD884210B501EB020301D8421E0BE09842FBD28118D21AD34204D013F8014D01F8014DF8E7CB
:4014000010BD994204D011F8014B02F8014FF8E710BD000038B50546002944D051F8043C0C1F002BB8BFE41800F0D4F81E4A1368114613B96360146030E0A3420DD92268C0
:40144000A018834201BF18685B681218226063600C6023E0A24203D813465A68002AF9D118681918A1420BD12168014458188242196013D110685268014419605A600DE0DA
:4014800002D90C232B6009E021686018824201BF106852680918216062605C602846BDE8384000F098B838BD7081FF1F70B5CD1C25F0030508350C2D38BF0C25002D0646C6
:4014C00001DBA94202D90C23336046E000F082F8234B1C681A462146A1B10B685B1B0ED40B2B03D90B60CC18CD501EE08C420BBF63684B681360636018BF0C4615E00C46EA
:401500004968E9E7174C23681BB9304600F052F820602946304600F04DF8431C18D0C41C24F00304A0420DD12560304600F053F804F10B00231D20F00700C31A0ED05A4238
:40154000E25070BD211A304600F034F80130EBD10C233360304600F03EF8002070BD00BF7081FF1F6C81FF1FF8B5074615460E4621B91146BDE8F840FFF798BF1AB9FFF701
:4015800049FF2846F8BD00F027F885420ED929463846FFF78BFF044650B131462A46FFF7DFFB31463846FFF735FF01E03046F8BD2046F8BD38B5064C0023054608462360D0
:4015C000FEF728FF431C02D1236803B12B6038BD8C81FF1F7047704751F8040C0028BEBF091851F8043CC0180438704700000000427974652072656365697665643A202558
:40160000640A0000005100401000305100404000F0510040100000000140800600070140000900140140800200170140000500400140000A004C01400002005001402000F2
:4016400060520040FC050048060080060140040600488000801601408406004880004300232D302B2000686C4C0065666745464700303132333435363738394142434445D9
:401680004600303132333435363738396162636465660000F8B500BFF8BC08BC9E4670474D00000091040000F8B500BFF8BC08BC9E46704729000000C8160000C880FF1F35
:4016C0008000000048000000000000009081FF1F0000E02EC05D00001800000000366E0100000000000000000000000000000000000000000000000000000000000000000B
:401700005E16000000000000000000000000000000000000000000000000000000000000000000000000000000000000000000000000000000000000000000000000000035
:40174000E080FF1F000000000000000000000000000000000000000000000000000000000000000000000000000000000000000000000000000000000000000000000000EB
:401780000000000000000000000000000000000000000000000000000000000000000000000000000000000000000000000000000000000000000000000000000000000029
:4017C00000000000000000000000000000000000000000000000000000000000000000000000000000000000000000000000000000000000000000000000000000000000E9
:4018000000000000000000000000000000000000000000000000000000000000000000000000000000000000000000000000000000000000000000000000000000000000A8
:401840000000000000000000000000000000000000000000000000000000000000000000000000000000000000000000000000000000000000000000000000000000000068
:020000040003F7
:0200000480007A
:4000000002520040015B00400564004003650040490401403E050140080601404007014002090140070B0140610C01403B0D01404D1401404C150140051601404D1701403B
:4000400001190140021B014007400140034101400542014005430140024401400F4501400646014004470140024801400E490140044C0140084D0140055001400151014001
:400080001035112627218547860F87078C0D8D0D8438857887720414081009800AAC0B130C0C0E710F081010124014DC152C162217431A031F0C2009217122D0230E2620CC
:4000C00029712B0630E0330F341F353037C039A03A023B083F104002460449FF4A074BFF4C404D204EF04F0550085608580459045A045B045C115D215F01604061A86240D1
:400100006320830184088E079005A208A601B002B208B301B404B601BE54D441D804D904DB04DC22DD20DF0100400120022006010720081009080A040B800E4012901424ED
:40014000152016401708184019011A041E421F14200421082280272029213108328038203A083B843F024004501052105360580459505B015C805E205F0860206241630646
:4001800067206AA06B1078807A01831096A0B650C0A7C21EC43CCA05CC0ACE8CD004D67FD84FE004040134013E10540158045B045D105F0100600310040809080A480B0223
:4001C00010041292188019A01A481E0820062101231028902A8030013181331439594040432049204A2050045102520453015D805E085F216310684069596A046B0A7801D2
:400200007B048C0490409308952098109A189D709F01A108A280A324A630AB04C027C20FC40FCA0BCC0FCE0FD005D204D6F0D802DE05EE01E440EE018104A504AF20B30475
:40024000B601B709E8520102050807040B01110E12051E04260929012E0230023108320833043404350136013702398A3E103F454050410145D046104720482A49FF4AFFCF
:400280004BFF4DA04F04501852805405580459045A045B045F01604062C06440654066C068C06AC06CC06EC08104830889028E05920297019D01A604A90EAA09B002B101FE
:4002C000B201B308B404B504B608B702B9A8BE10BF54C040C102C5D2C701C813C9FFCAFFCBFFCDA0CF04D018D280D405D804D904DA04DB04DF01E040E2C0E440E540E6C0B4
:40030000E8C0EAC0ECC0EEC0004009020E400F42102816201740185019401A041E491F04200222042384260227292B082F0430283160360138103B023D083E214040412002
:400340004602482049014F4150085622570159015A045B805D805E085F017102774082028604880189808B09C001C298C4A6CA24CC8ACEE5D015D210D6DBE001E40802086C
:40038000060409030A080C030F0812011304150216041711180319031C041F042203240329012B322C043002312032043303340835183601370438083E513F50401441050D
:4003C0004206440245C0460E480649FF4AFF4BFF4C624DA04EF04F41500C5418580459045A045B045C115D115F016640670269106A306B106D106E106F1290019E01A4021C
:40040000B002B201BB02BE05D420D604D804D904DB04DC10DD20DF01008003A809020A250C010F01138A14101508180419401A401B081E101F01202021182282260127801D
:400440002804310932403310388039104111420149214A0153805A025C026004628064806608670A812082C08480872088168E109080911A92A79309964098019A089B1A60
:400480009C049D409E809FA0A040A102A320A410A508A602B510B701C00FC29FC42DCA04CC0FCE0CD00DD20CD681D8FCE610EE021B01370159045C805F11000401A008403C
:4004C00009080A080B4010A8120113801440150219821A091B20200422512580284429A02B20308031083212372038A83A013B404240430148014A104B115116530159021B
:4005000069506B1470BC7B0C7C807D407F089080910292049318952098019A089B0A9C849D509E809F15A041A304A410A580A610A901AA02AB04B102B320B604B701C0075D
:40054000C20FC40FCA0FCC2FCE0FD001D20CD601DE24EA04EA04E680EE0231403308340237405C026540CCF09C029F40A70803209C029F40A708C0109C02A708AB60EC20A5
:40058000EE801080C4085280561059405F2064016604820485408A90A080D407D605D801E001E4041A80A080AC01B320C608EC048F10A080AA40E4029C02A7081610170460
:4005C00071028304840286108D029C02AF08C420DC80E0C0E640EE401F109B10A880C6011080771088809B10AF10C408DE04E60100070A060E0110061A0600FF808000008B
:400600004000000000010002E001000480012008131004012080C0000A40140013400C000300141E004008000020150040002000E0000001E04000800F20101F0000200093
:400640000000405462040000000B00CE31FFFFFF0000F0440C000000000002280404042411810811000000000000C000000040020000000000000000000000000000000032
:400680000000000000FF00001C1823000108000033C00C0003000004028000001F3C20C200102300080000E3041C00E10C4400003FE7001810C000002C1F0F380000A02047
:4006C000000001000406400005BEC0DF3BFFFFFF2200F00C8C10000000000213040424041118001100000000000000004001C00100000000000000000000000000000000DA
:4007000000000000800056818100810000000000000B0B0000000000003F3F003F00C0000E0018010E0018010000000000000000000000000000000000000000000000007F
:400740000000000000000000000000000000000000000000000000000000000000000000000000000000000000000000000000000000000000000000000000000000000079
:400780000000000000000000000000000000000000000000000000000000000000000000000000000000000000000000000000000000000000000000000000000000000039
:4007C00000000000000000000000000000000000000000000000000000000000000000000000000000000000000000000000000000000000000000000000000000000000F9
:4008000000000000000000000000000000000000000000000000000000000000000000000000000000000000000000000000000000000000000000000000000000000000B8
:0200000490006A
:0400000000004005B7
:0200000490105A
:04000000BC90ACAF55
:0200000490303A
:02000000319F2E
:0200000490402A
:4000000000000000000000000000000000000000000000000000000000000000000000000000000000000000000000000000000000000000000000000000000000000000C0
:400040000000000000000000000000000000000000000000000000000000000000000000000000000000000000000000000000000000000000000000000000000000000080
:400080000000000000000000000000000000000000000000000000000000000000000000000000000000000000000000000000000000000000000000000000000000000040
:4000C0000000000000000000000000000000000000000000000000000000000000000000000000000000000000000000000000000000000000000000000000000000000000
:0200000490501A
:0C00000000012E16106900012E2042089D
:00000001FF