:400000000080002011000000050600000506000008B5044B1A6803F53F5302331A6000F011FB00BFFA46004010B5054C237833B9044B13B10448AFF300800123237010BD55
:400040005081FF1F00000000141C0000084B10B51BB108490848AFF300800848036803B910BD074B002BFBD0BDE81040184700BF000000005481FF1F141C0000C880FF1F92
:400080000000000000B5A1B000F0E4FD03460B4A10700B4A8021684601F08AF9684600F097FE4B2000F0CAFD00F0DAFD4FF4967001F0D6F821B05DF804FB00BF8481FF1F08
:4000C000181C000010B500F061FE044607E000F057FE044B187000F065FE013CE4B2002CF5D110BD8581FF1F08B50138092841D8DFE800F0050E1730282033363A3E1E4A80
:400100001E48136852680168406800F06DF808BD194A13685268194909680A2000F076F808BD154A1548136852680168406800F08BF808BD1148AA2300220168406800F0BE
:40014000A7F808BD0D480023AA220168406800F08DF808BD00F072F808BD00F069F808BD0C2000F0B5F808BD0C2000F0A3F808BD00F0B6F808BD00BFCC80FF1F6C81FF1FB6
:4001800008B562B600F0AEFD094800F04DFE094800F072FE00F0E6FD00F0C2FE00F092F800F00CF8044B1878FFF79EFFFAE700BF85000000C50000008481FF1F08B500F075
:4001C0003DFB00F0CFFA00F0F5FA00F05FFB00F0D7FC00F007FC00F0F1FC00F021FC00F0FBFC00F02BFC08BDF8B507460E4615461C460A2000F058FB7819C0B200F0FCFA21
:400200003019C0B200F08CFAF8BD00BFF8B507460E4615461C46082000F046FB7819C0B200F0EAFA3019C0B200F07AFAF8BD00BF08B5092000F038FB08BD00BF08B50020E1
:4002400000F032FB08BD00BFF8B507460E4615461C461E2000F028FB7819C0B200F0CCFA3019C0B200F05CFAF8BD00BFF8B507460E4615461C460A2000F016FB7819C0B21A
:4002800000F0BAFA3019C0B200F04AFAF8BD00BFF8B507460E4615461C460C2000F004FB7819C0B200F0A8FA3019C0B200F038FAF8BD00BF08B501F025F8002001F01CF83B
:4002C00008BD00BF08B50C20FFF7F4FF08BD00BF08B501F017F8022001F00EF808BD00BF08B5012001F008F808BD00BFFEE700BFF0B40022174611E050F82760F3B226F035
:40030000FF0608E001EB420511F812406D78A5550132013BDBB2002BF4D10137202FEBD9F0BC704708B50A46002101F038F808BDF8B51C4B1B78DBB21B4E3478E4B21B4F6C
:400340003D78EDB203F00701194A11701B090132137044F00303337045F003033B70C022144B1A704023144A13700232137006321370023213700422104B1A7020220333F2
:400380001A7008230E490B7003310A700D4A13700A2000F07BFF3D70347044220A4B1A70F8BD00BFCF010049F8460040F94600406E5800402D51004001590040205B004061
:4003C000285B0040585B00407658004008B500F0DBFF08BD38B50122354B1A801823354A13703321023211800232137040F2AF41023211800232137047F22F522E4B1A804B
:40040000192502331D7008222C492D48FFF7DEFF02222C4B1A7008224FF040231A70032103F500731970284B1B78DBB227490B70274B1A8041F25122023B1A8000240CE02B
:40044000244B1B7803F0010343EA440404F003044FF4F07000F05CFF013D0DB1032CEFD115B90320FFF742FF1B4B4FF480721A8007221A70002219490A7048200231087019
:400480001A700222033B1A7004220A331A70144A137843F00F031370013A137843F003031370013A137843F08003137038BD00BF80400040824000408C4000400009004894
:4004C000004100400043004008010049A146004022420040254200400440004006400040A243004038B572B6354A137843F00403137000240CE0334D630019194A00114663
:400500002A44084691882858FFF70CFF0134E4B2082CF0D900240BE02A49A3001819420088180622C16B806BFFF750FF0134E4B2002CF1D024494FF09040FFF7D9FE234A73
:40054000137843F0020313701032137843F0020313701F4C237843F040032370A2F58632513A137843F0100313700A2219491A48FFF72CFF082219491948FFF727FF08222C
:4005800018491948FFF722FF082218491848FFF71DFF184A137843F008031370164D61232B70FFF717FF81232B700122134B1A70FFF7BEFE0E2221461148FFF707FF38BD4C
:4005C000E84600402C1C00008400004803500140A0430040DC080048C0510040E808004812510040F008004822510040F808004832510040224300400048004004000840F3
:40060000B043004008B500F093FE03680C2B00D1FEE7FEE708B5094B1A681044084BC31A802B02DC054B186005E000F081FE0C2303604FF0FF32104608BD00BFD480FF1F02
:40064000B881FF1F08B5104E104D16E029686B68AC68002204E051F8040B43F8040B0432A242F8D1E868002203E0002143F8041B04328242F9D11035013E002EE6D100F0C5
:400680005DFEFFF77DFDFEE701000000C81C000008B5104A104B1A60104A136843F40073136000230AE0032B03D80D4A52F8231000E00C490C4A42F8231001332F2BF2D98C
:4006C0000A4B1A780A4B1A70074A0A4B1A60FFF709FF08BD0004FA050CED00E014ED00E000000000050600000080FF1FBC760040C080FF1F08ED00E0024A137843F08003B9
:40070000137070477D640040014B1870704700BF0C640040014B1870704700BF4C640040014B1870704700BF2C640040014B1870704700BF8C640040014B1878704700BF44
:400740006C640040014B1878704700BF5C64004008B501E0FFF7F6FFFFF7EEFF10F0100FF8D108BD10B5114A137803F0C00343F0090313700E4C237843F001032370FF20FD
:40078000FFF7C2FFFF20FFF7C5FF0020FFF7C8FF0020FFF7CBFF00F0C3FD237843F01003237000F0C1FDFFF7D3FF10BD7D6400409C64004008B5054B1B7823B9FFF7D2FFE1
:4007C0000122024B1A70FFF797FF08BD7481FF1F024A137843F080031370704779640040014B1870704700BF0D640040014B1870704700BF4D640040014B1870704700BF37
:400800002D640040014B1870704700BF8D640040014B1878704700BF6D640040014B1878704700BF5D64004008B501E0FFF7F6FFFFF7EEFF10F0100FF8D108BD10B5114A7D
:40084000137803F0C00343F0090313700E4C237843F001032370FF20FFF7C2FFFF20FFF7C5FF0020FFF7C8FF0020FFF7CBFF00F057FD237843F01003237000F055FDFFF75A
:40088000D3FF10BD796400409D64004008B5054B1B7823B9FFF7D2FF0122024B1A70FFF797FF08BD7581FF1F014B1870704700BF7C64004008B50A280FD00C2802D008282B
:4008C00006D102E04FF4805209E04FF4807206E0002000F0C3FC002201E04FF480620021094B198042F2107303FB02F303F6C413064A82FB0302DB17C3EBE223044A13606F
:40090000044B198008BD00BF9081FF1FAD8BDB688C81FF1F9281FF1F10B500F001FD04461E4A137843F0020313701032137843F0020313701A3A137843F001031370103237
:40094000137843F00103137002F5AA521A32137843F0030313701822114B1A70013B1A7842F040021A701A7802F0FC021A70C822053B1A700222A3F59753123B1A70094A30
:40098000137843F0080313700A2000F07FFC0822054B1A60204600F0C7FC10BDAB4300400E5900402F5B004080E200E010B504460A280DD00C2802D0082804D101E0C222AD
:4009C00007E0422205E0002000F048FCC22200E08222034B1A702046FFF76CFF10BD00BF0A59004008B5102000F016FC0721032000F06AFC0749032000F052FC064A137821
:400A000043F0060313700820FFF7D0FF0022034B1A8008BD4D0A0000095900408881FF1F08B5054B1B7823B9FFF7DCFF0122024B1A70FFF771FF08BD7681FF1F024A1378BD
:400A400043F001031370704708590040704700BF08B50A280FD00C2802D0082806D102E04FF4805209E04FF4807206E0002000F0F5FB002201E04FF480620021094B1980E2
:400A800042F2107303FB02F303F6C413064A82FB0302DB17C3EBE223044A1360044B198008BD00BF9881FF1FAD8BDB689C81FF1F9681FF1F10B500F033FC04461E4A1378D5
:400AC00043F0010313701032137843F0010313701A3A137843F0020313701032137843F00203137002F5AA521232137843F0030313701822114B1A70013B1A7842F04002B3
:400B00001A701A7802F0FC021A70C822053B1A700222A3F597530C3B1A70094A137843F0080313700A2000F0B1FB0422054B1A60204600F0F9FB10BDAB43004006590040BB
:400B4000275B004080E200E010B504460A280DD00C2802D0082804D101E0C22207E0422205E0002000F07AFBC22200E08222034B1A702046FFF76CFF10BD00BF02590040A0
:400B800008B5102000F052FB0721022000F09CFB0749022000F084FB064A137843F0060313700820FFF7D0FF0022034B1A8008BDE90B0000015900409481FF1F08B5054B35
:400BC0001B7823B9FFF7DCFF0122024B1A70FFF771FF08BD7781FF1F024A137843F001031370704700590040704700BF08B500F097FB0A4A137843F020031370033A137864
:400C000043F010031370FE32137843F01003137000F08AFB1022024B1A6008BD9E64004000E100E0014B1878704700BF6B640040014B1878704700BF69650040034B1B788F
:400C400013F0020FFAD0024B187070476B6400404E640040014B1878704700BF5E64004008B501E00A4B1B780A4B1B7813F0080FF8D100F055FB084B1A7842F003021A707E
:400C80001A7802F0FC021A7000F04EFB08BD00BF5E640040696500409E64004010B507240C4B1C7010220C4B1A600C49042000F0F7FA2146042000F007FBFFF7D1FFFFF7B0
:400CC000B1FFFFF7B5FF0022054B1A700822FE331A7010BD8E64004080E100E0010D00008B64004008B5054B1B7823B9FFF7D6FF0122024B1A70FFF779FF08BD7881FF1FB1
:400D0000704700BF7222084B1A70202201331A700622A3F5B1731A70472210331A7000224F331A70704700BF8A65004010B500F0F7FA04460A4A137843F02003137001327A
:400D4000137843F010031370A2F20312137843F01003137000F074FA204600F0E5FA10BD9A65004008B5054B1B7823B9FFF7CAFF0122024B1A70FFF7D9FF08BD7981FF1FA3
:400D8000014B1878704700BF49650040044B1B7813F0200F01D0012070470020704700BF6B650040024B1B780BB1024B187070477981FF1F4A640040034B1B7813F0040F6B
:400DC000FAD1024B18707047686400404A64004038B5074B1B782BB938BDFFF7EDFF0134A4B201E005460024285D0028F5D138BD7981FF1F014B1B681864704708ED00E0E3
:400E00004001C0B2014B1870704700BF00E400E00122014B1A60704700E100E00122014B1A60704780E100E010B50446FFF7F6FF2046FFF7DFFF0720FFF7E2FFFFF7E8FFA0
:400E400010BD00BF014B1B685864704708ED00E04001C0B2014B1870704700BF01E400E00222014B1A60704700E100E00222014B1A60704780E100E010B50446FFF7F6FFCF
:400E80002046FFF7DFFF0720FFF7E2FFFFF7E8FF10BD00BF38B50222114B1A7081220E3B1A70082202331A700F2511331D70002401331C704FF400420A4B1A600721284668
:400EC00000F002FA0849284600F0EAF91022074B1A70074B1C70074B1C70074B1C7038BDD649004080E100E0490F0000A081FF1FB181FF1FA481FF1FA581FF1F08B500F01C
:400F00000FFA064A137843F0040313701032137843F00403137000F007FA08BDA543004008B5074B1B7823B9FFF7B4FF0122044B1A70FFF7E3FF4FF40042024B1A6008BD9C
:400F40007B81FF1F00E100E038B5A54B1C78A54B1B7813F0400F00F03A81E4B214F0010F00F01D819F4B1B78453B052B00F21481DFE813F006008200120112010600DF005C
:400F800004F0DF0504F00A04082C42D1954B1B78DBB2452B35D1944B1B7813F0FF0F10D0924B1B681B78DBB2914A137004228C4B1A7001228F4B1A7046228A4B1A702C4612
:400FC000EDE08D4B1B7813F0020F0DD08B4A137843F00A0313706022824B1A704FF40042874B1A602C46DAE0864A137843F0100313701022844B1A700422023B1A702C46C1
:40100000CDE00022764B1A704A22764B1A702C46C5E00A2C2BD1794A137843F0A0031370754B1B7813F0020F14D06E4B1B7813F0080F01D0092300E00A23704A11780B43A3
:4010400013706022674B1A704FF400426C4B1A602C46A4E06B4A137843F0100313701022694B1A700422023B1A702C4697E0002000F0F4F82C4692E014F0020F36D15D4B90
:401080001A78D2B2584B1B78DBB29A4210D2594A1378DBB255490968CB5CDBB254490B7004214F4B197013780133DBB2137076E0514B1B7813F0020F0CD0504A137843F01F
:4010C0000A0313706022474B1A704FF400424C4B1A6064E04B4A137843F0100313701022494B1A700422023B1A7058E0424B1B7813F0020F0CD0414A137843F09A03137011
:401100006022384B1A704FF400423D4B1A6046E03C4A137843F01003137010223A4B1A700422023B1A70354A137843F09003137035E0364A1378DBB2354908682C49097887
:40114000C9B2C15413780133DBB213701278D2B2304B1B78DBB29A4203D21022204B1A701DE0254B1B7813F0020F0CD0234A137843F00903137060221A4B1A704FF40042EF
:401180001F4B1A600BE01F4A137843F0100313700022134B1A7002E0002000F05FF814F0200F1CD00F4B1B7813F0080F01D0012300E00223114A11780B431370114A137895
:4011C00003F0EF0313701022064B1A7038BD054B1B7813F0100F02D11022024B1A7038BDD7490040A081FF1FA681FF1FA881FF1FD8490040A581FF1FB081FF1FB181FF1F40
:4012000080E100E0D6490040D9490040A481FF1FAC81FF1FB281FF1F034B1A7800F0F80010431870704700BF02410040034B1A7800F0F80010431870704700BF0641004091
:40124000054A137843F0020313701032137843F002031370704700BFA243004001BE704710B5044605E0084B186800F051F8A4F50044B4F5004FF6D8034B586800FB04F0A0
:4012800000F046F810BD00BFD880FF1F08B5034B1B7A00FB03F000F03BF808BDD880FF1F70B504460E46074B1D681F2802D90020FFF7D4FF04F01F04103455F8240045F864
:4012C000246070BD08ED00E038B504460D46072902D90020FFF7C2FF1F2C02D90020FFF7BDFF04F01F0000F1604000F564406D01EDB2057038BD00BF014B1870704700BF47
:401300007B650040014B1870704700BF786500400230800803D000BF01380046FCD17047EFF3108072B6704780F31088704700BF014B1868704700BF4881FF1F0E4B70B55E
:401340001E460E4C0025E41AA410A54204D056F8253098470135F8E700F0A4FC084B094C1E46E41AA4100025A54204D056F8253098470135F8E770BDB01C0000B01C0000FC
:40138000B01C0000B81C000010B5431E0A44914204D011F8014B03F8014FF8E710BD03460244934202D003F8011BFAE7704700000CB430B5164B0C1E9DB01D6804DA8B23B3
:4013C0002B604FF0FF301EE04FF40273ADF814300CBF234604F1FF33049307934FF6FF7302900690ADF81630209A21AB02A92846019300F069F8431CBCBF8B232B6014B1A3
:40140000029B00221A701DB0BDE8304002B070474881FF1F2DE9F0478E6882469E420C46914698463ED88A8912F4906F3AD02568096902236F1A656905EB450595FBF3F5DA
:401440007B1C43449D4238BF1D4653050FD5294600F040FB064698B13A462169FFF794FFA38923F4906343F08003A38113E02A4600F08EFB064670B92169504600F0DEFACE
:401480000C23CAF80030A3894FF0FF3043F04003A381BDE8F08726613E44266046466561ED1BA560464528BF464649463246206800F0A8FAA36800209B1BA36023681E44DD
:4014C0002660BDE8F08700002DE9F04F9DB003938B8980461C060D4616460DD50B695BB9402100F0F7FA2860286118B90C23C8F80030CDE040236B610023099320238DF857
:401500002930DFF89CB130238DF82A3037463C4614F8013B1BB9B7EB060910D003E0252BF9D02746F3E74B46324629464046FFF771FF013000F0A780099B4B4409933B78DF
:40154000002B00F0A08000234FF0FF3204930793059206938DF853301A930126052221784E4800F041FA671C049B38B14B4A3C46801A06FA00F018430490EFE7D90644BF8C
:4015800020228DF853201A0744BF2B228DF8532022782A2A03D0079A00210A200BE0039A111D12680391002A10DA524243F00200079204900BE027463B780134303B092B2E
:4015C00003D800FB02320121F5E701B107923B782E2B1ED17B782A2B0AD1039B02371A1D1B680392002BB8BF4FF0FF33059310E0002319460593781C0A2407463A780130AD
:40160000303A092A03D804FB01210123F5E703B1059103223978224800F0E6F940B14023CBEB000003FA00F0049B013718430490397806221B487E1C8DF8281000F0D4F9AB
:4016400088B1194B33B9039B073323F007030833039314E003AB00932A46144B04A94046AFF3008007E003AB00932A460F4B04A9404600F093F8B0F1FF3F824603D0099B04
:401680005344099342E7AB895B0601D4099801E04FF0FF301DB0BDE8F08F00BF701C0000761C00007A1C000000000000151400002DE9F04791461F460A698B6806469342D7
:4016C000B8BF1346C9F8003091F843200C46DDF8208012B10133C9F800302368990642BFD9F800300233C9F80030256815F0060510D104F1190A07E001235246394630460E
:40170000C04701301AD00135E368D9F800209B1A9D42F1DB94F843302268003318BF012392060FD5E118302081F843005A1C94F845102244023382F8431003E04FF0FF306D
:40174000BDE8F08704F1430239463046C0470130F4D02268D9F80050E36802F00602042A08BF5D1B2269A3680CBF25EAE57500259342C4BF9B1AED184FF000091A344D459C
:4017800009D00123224639463046C0470130D5D009F10109F3E70020BDE8F0872DE9F04317460A7E85B06E2A984606460C460C9B01F1430E00F0AE8011D8632A22D009D810
:4017C000002A00F0BB80582A40F0CA8081F84520834955E0642A1ED0692A1CD0C0E0732A00F0B08009D86F2A2ED0702A40F0B8800A6842F020020A603EE0752A24D0782A64
:401800003AD0ADE01A6801F14205111D1960136884F84230A8E021681A6811F0800F02D0111D196008E011F0400F02F10401196002D0B2F9003000E01368002B3CDA2D2269
:401840005B4284F8432037E021681A6811F0800F02D0111D196007E011F0400F02F10401196001D0138800E01368227E5C496F2A14BF0A2208221BE078225A4984F8452032
:401880002268186812F0800F00F104051D6003D1550601D5038800E00368D00744BF42F0200222601BB9226822F0200222601022002084F8430001E049490A226568002DCD
:4018C000A56008DB206820F0040020602BB9002D7DD175460CE0002B79D07546B3FBF2F002FB1033CB5C05F8013D03460028F5D1082A0BD12368DA0708D5236962689A42BD
:40190000DEBF302305F8013C05F1FF35C5EB0E0323612EE008681A6810F0800F496903D0101D1860136808E010F0400F02F104001860136801D0198000E01960002323614F
:40194000754616E01A68111D1960156800216268284600F049F808B1401B6060636804E004F1420584F8422001232361002384F84330CDF800803B4603AA21463046FFF7E9
:4019800097FE013002D14FF0FF3026E023692A4639463046C0470130F5D023689B0710D5002504F1190907E001234A4639463046C0470130E7D00135E368039A9B1A9D42AD
:4019C000F2DBE068039B9842B8BF184605E00B7804F1420584F842308AE705B0BDE8F083811C0000921C000010B5C9B202449042034605D01C7801308C42F8D1184610BD6D
:401A0000002010BD884210B501EB020301D8421E0BE09842FBD28118D21AD34204D013F8014D01F8014DF8E710BD994204D011F8014B02F8014FF8E710BD000038B5054682
:401A4000002944D051F8043C0C1F002BB8BFE41800F0D4F81E4A1368114613B96360146030E0A3420DD92268A018834201BF18685B681218226063600C6023E0A24203D85C
:401A800013465A68002AF9D118681918A1420BD12168014458188242196013D110685268014419605A600DE002D90C232B6009E021686018824201BF1068526809182160DA
:401AC00062605C602846BDE8384000F098B838BD8081FF1F70B5CD1C25F0030508350C2D38BF0C25002D064601DBA94202D90C23336046E000F082F8234B1C681A4621469A
:401B0000A1B10B685B1B0ED40B2B03D90B60CC18CD501EE08C420BBF63684B681360636018BF0C4615E00C464968E9E7174C23681BB9304600F052F820602946304600F008
:401B40004DF8431C18D0C41C24F00304A0420DD12560304600F053F804F10B00231D20F00700C31A0ED05A42E25070BD211A304600F034F80130EBD10C233360304600F0F9
:401B80003EF8002070BD00BF8081FF1F7C81FF1FF8B5074615460E4621B91146BDE8F840FFF798BF1AB9FFF749FF2846F8BD00F027F885420ED929463846FFF78BFF0446FD
:401BC00050B131462A46FFF7DFFB31463846FFF735FF01E03046F8BD2046F8BD38B5064C0023054608462360FEF714FD431C02D1236803B12B6038BDB481FF1F70477047B1
:401C000051F8040C0028BEBF091851F8043CC0180438704700000000427974652072656365697665643A2025640A0000C84900401900005100401000405100403000F051FC
:401C40000040100000000140001000140140000800400140000A004C01400002005001402000000060520040D408004806004300232D302B2000686C4C006566674546474D
:401C8000003031323334353637383941424344454600303132333435363738396162636465660000F8B500BFF8BC08BC9E4670474D00000091060000F8B500BFF8BC08BCD9
:401CC0009E46704729000000D81C0000C880FF1F880000006800000000000000A5000000A5000000B881FF1F0000E02EC05D00001800000000366E0100000000000000004D
:401D00000000000000000000000000000000000000000000000000006E1C000000000000000000000000000000000000000000000000000000000000000000000000000019
:401D4000000000000000000000000000000000000000000000000000E880FF1F000000000000000000000000000000000000000000000000000000000000000000000000DD
:401D80000000000000000000000000000000000000000000000000000000000000000000000000000000000000000000000000000000000000000000000000000000000023
:401DC00000000000000000000000000000000000000000000000000000000000000000000000000000000000000000000000000000000000000000000000000000000000E3
:401E000000000000000000000000000000000000000000000000000000000000000000000000000000000000000000000000000000000000000000000000000000000000A2
:401E40000000000000000000000000000000000000000000000000000000000000000000000000000000000000000000000000000000000000000000000000000000000062
:020000040003F7
:0200000480007A
:4000000006520040015B0040056400400365004004070140580801404E0901404C0A0140470B0140590C0140490D01404A0E0140310F0140051501400317014050180140D6
:4000400047190140451A0140451B01400940014004410140064201400D43014003440140154501400B460140054701400E4801401A490140114C01400D4D01400550014028
:400080000351014008400940101C111A180319092721880F8B478C0D8D0D8E0789788A728B38E204E620E810EE010295065507F309560A550BA911241255131816021A091A
:4000C0001E25205522AA265529412A552B8230C031C03203330C340C3503363037303AAA3F555401580459045B045C085D105F118073820C887389118A048B0E8E08950C37
:400100009713982A9A449B139C039E049F10A111A306A480A615AB08AF0CB00FB110B30FB430B6C0B8A0BA02BB88BE10BF01C002C640C9FFCA07CBFFCC40CD20CEF0CF05F8
:40014000D008D280D804D904DA04DB04DC11DD01DF01E040E1A8E240E3200020019204080501070409800A080D080E861020141016801720180419C21D0D1E062040224426
:4001800025012610271129422A122C202E082F083020318032043422362239103D283E204004482052105C505F0973407F04831089018B0190089201930995029608974086
:4001C00098109A409B0C9C029D409EBAA010A180A264A324A504A680AC01AF04B480C07BC2F3C474CA2DCC8ECE64D004D6F0DE20E620E810EE0100020720090C0A050B7109
:400200000F031201140515DC17221914211023AC29102B402D092FD03001320433E03402371F3B083E154012410345E046BC480E49FF4AFF4BFF4EF04F44500C56085804DF
:4002400059045A045B045C105D215F0166C06A406B02800182028309854087958F259604970299809B55A202A601ADD5AE01AF2AB10CB203B3C0B404B503B730BBA2BE04CB
:40028000D441D804D904DB04DC80DD20DF1100120110068008010A200C0814821620180419041A401F1420222144231025412644271429402A122E80302032043410371479
:4002C00039803A083B103D8A4104420A48404B015020518058085A905E605F046010626065047F04800481018C0492B19512976098099B08A008A210A324A440A680AA80B2
:40030000AF40B701C01AC22CC4B0CA1DCC66CEDED00ED67ED84EDE20E808EA0107030B080E02170A1D01221D24012504260428082A102B04300A31023212330834063501CC
:40034000360337043E553F044060410345D14620480B49FF4AFF4BFF4DA04F0450185405580459045A045B045F01604062C06440654066C068C06AC06CC06EC080028702E6
:400380008B019201AD02AE04B004B102B201B402B501BE10BF01C040C103C5D2C701C813C9FFCAFFCBFFCDA0CF04D018D280D405D804D904DA04DB04DC20DF01E040E2C0E9
:4003C000E440E540E6C0E8C0EAC0ECC0EEC00380070109021340150117141840190A1B201C281F4122112408258126042A802E012F983040318C3508368839183F284040AF
:400400004108462049054E084F095008530856205710584059015A085C805E085F016D016F157102860188148C8491089298950298099B089D069E809F01A210A380A4403B
:40044000A501A708A848AE40B320C088C208C471CA68CC50CE66D043D220D6DBE402EA080101022109010A1E0C400F0110101281168017081840190120812202230C2481F9
:40048000260428812A082B042D02308031013220330834403504361F370238203E513F45400441054240440145CE46DF470B481F49FF4AFF4BFF4C224EF04F0C508C511063
:4004C00056025720580459045A245B245C085D885E085F31684069016AC06B0181028D019102B302B501B908BF14D608D904DB04DD20DF0100100240030109200A500B2072
:4005000010A8181119201A80204221202284272829022A802B0930203104370139913C803D02404148014A50510453905E806280640168A869916A4079027B018120C00B0C
:40054000C20EC40ECA0DCC86CE9DD009D208D610D818DE09E401E008E480E610EA09EE04E228E601EE08000203010408050209280A010B400E02101011501328150116103A
:40058000182019081B301C012204230424042A082B022D782E20311833073560363F3E403F04580459045B045C305F018C428E34902092C89C849E32A4E7A8E7AC01B0E080
:4005C000B218B401B606BE04C036C105C202C401C6E0C7C0C828C9FFCAFFCBFFCC62CDA0CEF0CF41D00CD420D604D804DA04DB04DC01DD21DF01E640E702E910EA30EB10BD
:40060000ED10EE10EF1200800408050107090A420EAA1002111415411714192A1A4A1F802514260227202EA02F82314032403504360237203C023D203E0441184202496025
:4006400052115A01602463426D416E206F10740176207709810187408B4090089285982099059A409B049E809F20A101A245A305A514A682A708AE10B321B410B580C0F1E1
:40068000C2F9C4F7CAB0CCE0CEE0D00ED20CD601D80FE220043C050C064209040A040C040D080E80107F110F13F0146715F31618170C191C1A031BE31DFF201021C32408DB
:4006C000258228182BF32C3C2D412E413020312C3280330F341F351C364037C038803A203B0A3E0156025713580459045B045C115D105F01820C860187018A0290049E01F8
:40070000AE02B008B201B404B602B701BE54D418D604D804D904DB04DC02DD10DF01009003200650070809080A880E4110A812021601181019011A011B201C041D401E40FB
:400740001F042118220223092680281029222A8031083242332038A83F0859015F0165406788680269146F0A70FC88408A809288940495349780981099229A51A304A4427A
:40078000A508A680A70AAC10AE01B508B602C077C29EC48FCA0FCC0FCE4ED681D8B0E008E480E610EA09EE0431403308358036043B4049404B40CCF0CE1097409D80A604B3
:4007C000A7083E1097409D80A604A708CE20230283028840961097409D809F02A604AB08B702C810E220EE8070028010DC0152105302570858045C106602860888048B08E4
:40080000901096019A10A402AE01B210D407D606D801E004E401EC041A808C0296119A08A402AA10AF02B602C608E402E8028B4096119A08AA40E204800485808B409610C1
:40084000974098209D80A040A302A604AC20E210E680EE101308164050045440570258207310740886408B088C08900893109820A040A302AA14AF10C430D4E0D620DC8076
:40088000DE20E010EA90EE200A100E010F40132817041F80660879017F40961197409A08C20DC40EC601D801DE0310208740882089018F04950197809B04ABA0AF08C40896
:4008C000E401E60C00070C070E05100F1C0F00FF010303C00204000043000000830040808700830000000000B04B4B0040000000003F3F003F00C000000F0F000F0000001E
:400900000E0018010E001801000000000000000000000000000000000000000000000000000000000000000000000000000000000000000000000000000000000000000069
:400940000000000000000000000000000000000000000000000000000000000000000000000000000000000000000000000000000000000000000000000000000000000077
:400980000000000000000000000000000000000000000000000000000000000000000000000000000000000000000000000000000000000000000000000000000000000037
:4009C00000000000000000000000000000000000000000000000000000000000000000000000000000000000000000000000000000000000000000000000000000000000F7
:400A000000000000000000000000000000000000000000000000000000000000000000000000000000000000000000000000000000000000000000000000000000000000B6
:0200000490006A
:0400000000004005B7
:0200000490105A
:04000000BC90ACAF55
:0200000490303A
:0200000054E7C3
:0200000490402A
:4000000000000000000000000000000000000000000000000000000000000000000000000000000000000000000000000000000000000000000000000000000000000000C0
:400040000000000000000000000000000000000000000000000000000000000000000000000000000000000000000000000000000000000000000000000000000000000080
:400080000000000000000000000000000000000000000000000000000000000000000000000000000000000000000000000000000000000000000000000000000000000040
:4000C0000000000000000000000000000000000000000000000000000000000000000000000000000000000000000000000000000000000000000000000000000000000000
:0200000490501A
:0C00000000012E16106900012E2365502F
:00000001FF