:400000000080002011000000890500008905000008B5044B1A6803F53F5302331A6000F0D3FA00BFFA46004010B5054C237833B9044B13B10448AFF300800123237010BD8E
:400040005081FF1F00000000841B0000084B10B51BB108490848AFF300800848036803B910BD074B002BFBD0BDE81040184700BF000000005481FF1F841B0000C880FF1FB4
:400080000000000000B5A1B000F0A8FD03460B4A10700B4A8021684601F042F9684600F059FE4B2000F08EFD00F09EFD4FF4967001F098F821B05DF804FB00BF8581FF1F7F
:4000C000881B000010B500F023FE044607E000F019FE044B187000F027FE013CE4B2002CF5D110BD8481FF1F08B50138062836D8DFE800F0040D1630271F330096231A46DC
:40010000174909681748006800F05CF808BD15484368826812490968006800F065F808BD1048436882680E490968006800F07AF808BD9D23002205210A48006800F096F862
:4001400008BD00239D22064909680648006800F07BF808BD00F060F808BD00F057F808BD6C81FF1FCC80FF1F08B562B600F028FB00F0BAFA00F0E0FA00F04CFB00F0C4FC77
:4001800000F0F4FB00F0DEFC00F00EFC00F0E8FC00F018FC00F06AFD074800F007FE074800F02CFE00F0A0FD00F07CFE044B1878FFF79AFFFAE700BF85000000C500000071
:4001C0008581FF1FF8B507460E4615461C460A2000F02EFB7819C0B200F0D0FA3019C0B200F060FAF8BD00BFF8B507460E4615461C46082000F01CFB7819C0B200F0BEFA72
:400200003019C0B200F04EFAF8BD00BF08B5092000F00EFB08BD00BF08B5002000F008FB08BD00BFF8B507460E4615461C461E2000F0FEFA7819C0B200F0A0FA3019C0B227
:4002400000F030FAF8BD00BFF8B507460E4615461C460A2000F0ECFA7819C0B200F08EFA3019C0B200F01EFAF8BD00BFF8B507460E4615461C460C2000F0DAFA7819C0B235
:4002800000F07CFA3019C0B200F00CFAF8BD00BFFEE700BFF0B40022174611E050F82760F3B226F0FF0608E001EB420511F812406D78A5550132013BDBB2002BF4D10137F3
:4002C0001F2FEBD9F0BC704708B50A46002101F01EF808BDF8B51C4B1B78DBB21B4E3478E4B21B4F3D78EDB203F00701194A11701B090132137044F00303337045F0030321
:400300003B70C022144B1A704023144A13700232137006321370023213700422104B1A70202203331A7008230E490B7003310A700D4A13700A2000F06BFF3D70347044220D
:400340000A4B1A70F8BD00BFCF010049F8460040F94600406E5800402D51004001590040205B0040285B0040585B00407658004008B500F0C1FF08BD38B50122324B1A80DE
:400380001823324A13703321023211800232137040F2AF41023211800232137008222C492C48FFF7E5FF02222B4B1A7008224FF040231A70032103F500731970274B1B7811
:4003C000DBB227490B70274B1A8041F25122023B1A80002419250CE0234B1B7803F0010343EA440404F003044FF4F07000F048FF013D0DB1032CEFD115B90320FFF748FF53
:400400001A4B4FF480721A8007221A70002218490A704820023108701A700222033B1A7004220A331A70134A137843F007031370013A137843F003031370013A137843F03F
:400440008003137038BD00BF80400040824000405C070048004100400043004008010049A146004022420040254200400440004006400040A243004038B572B6334A137801
:4004800043F00403137000240CE0314D630019194A0011462A44084691882858FFF714FF0134E4B2092CF0D900240CE02848A20011194B000344B3F84420196CD86BFFF7E9
:4004C00057FF0134E4B2012CF0D922494FF09040FFF7E0FE204A137843F0020313701032137843F0020313701C4C237843F040032370A2F58632513A137843F01003137025
:400500000A2217491748FFF733FF082216491748FFF72EFF082216491648FFF729FF164A137843F008031370144D61232B70FFF723FF81232B700122114B1A70FFF7CAFE4E
:400540000E2221460F48FFF713FF38BDE84600409C1B00008000004803500140A043004040070048C05100404C07004812510040540700482251004022430040004800404B
:4005800004000840B043004008B500F089FE03680C2B00D1FEE7FEE708B5094B1A681044084BC31A802B02DC054B186005E000F077FE0C2303604FF0FF32104608BD00BFBD
:4005C000D880FF1FB881FF1F08B5104E104D16E029686B68AC68002204E051F8040B43F8040B0432A242F8D1E868002203E0002143F8041B04328242F9D11035013E002E77
:40060000E6D100F053FEFFF7AFFDFEE701000000481C000008B5104A104B1A60104A136843F40073136000230AE0032B03D80D4A52F8231000E00C490C4A42F823100133E2
:400640002F2BF2D90A4B1A780A4B1A70074A0A4B1A60FFF711FF08BD0004FA050CED00E014ED00E000000000890500000080FF1FBC760040C080FF1F08ED00E0024A13783F
:4006800043F080031370704777650040014B1870704700BF02640040014B1870704700BF42640040014B1870704700BF22640040014B1870704700BF82640040014B1878B2
:4006C000704700BF62640040014B1878704700BF5264004008B501E0FFF7F6FFFFF7EEFF10F0100FF8D108BD10B5114A137803F0C00343F0090313700E4C237843F00103CE
:400700002370FF20FFF7C2FFFF20FFF7C5FF0020FFF7C8FF0020FFF7CBFF00F0B9FD237843F01003237000F0B7FDFFF7D3FF10BD776500409264004008B5054B1B7823B999
:40074000FFF7D2FF0122024B1A70FFF797FF08BD7181FF1F024A137843F080031370704776640040014B1870704700BF06640040014B1870704700BF46640040014B18707A
:40078000704700BF26640040014B1870704700BF87650040014B1878704700BF67650040014B1878704700BF5664004008B501E0FFF7F6FFFFF7EEFF10F0100FF8D108BDC0
:4007C00008B5124A137803F0C00343F0090313702032137843F001031370FF20FFF7C2FFFF20FFF7C5FF0020FFF7C8FF0020FFF7CBFF00F04DFD064A137843F010031370FC
:4008000000F04AFDFFF7D2FF08BD00BF766400409765004008B5054B1B7823B9FFF7D0FF0122024B1A70FFF795FF08BD7281FF1F014B1870704700BF7364004008B50A28F5
:400840000FD00C2802D0082806D102E04FF4805209E04FF4807206E0002000F0C1FC002201E04FF480620021094B198042F2107303FB02F303F6C413064A82FB0302DB1750
:40088000C3EBE223044A1360044B198008BD00BF9081FF1FAD8BDB688C81FF1F9281FF1F10B500F0F5FC04461E4A137843F0020313701032137843F0020313701A3A13784D
:4008C00043F0010313701032137843F00103137002F5AA521A32137843F0030313701822114B1A70013B1A7842F040021A701A7802F0FC021A70C822053B1A700222A3F5C9
:400900009753123B1A70094A137843F0080313700A2000F07DFC0822054B1A60204600F0BBFC10BDAB4300400E5900402F5B004080E200E010B504460A280DD00C2802D0F1
:40094000082804D101E0C22207E0422205E0002000F046FCC22200E08222034B1A702046FFF76CFF10BD00BF0A59004008B5102000F014FC0721032000F068FC07490320F6
:4009800000F050FC064A137843F0060313700820FFF7D0FF0022034B1A8008BDD5090000095900408881FF1F08B5054B1B7823B9FFF7DCFF0122024B1A70FFF771FF08BD8C
:4009C0007381FF1F024A137843F001031370704708590040704700BF08B50A280FD00C2802D0082806D102E04FF4805209E04FF4807206E0002000F0F3FB002201E04FF46C
:400A000080620021094B198042F2107303FB02F303F6C413064A82FB0302DB17C3EBE223044A1360044B198008BD00BF9881FF1FAD8BDB689C81FF1F9681FF1F10B500F0D1
:400A400027FC04461E4A137843F0010313701032137843F0010313701A3A137843F0020313701032137843F00203137002F5AA521232137843F0030313701822114B1A7015
:400A8000013B1A7842F040021A701A7802F0FC021A70C822053B1A700222A3F597530C3B1A70094A137843F0080313700A2000F0AFFB0422054B1A60204600F0EDFB10BDD5
:400AC000AB43004006590040275B004080E200E010B504460A280DD00C2802D0082804D101E0C22207E0422205E0002000F078FBC22200E08222034B1A702046FFF76CFF7D
:400B000010BD00BF0259004008B5102000F050FB0721022000F09AFB0749022000F082FB064A137843F0060313700820FFF7D0FF0022034B1A8008BD710B0000015900404C
:400B40009481FF1F08B5054B1B7823B9FFF7DCFF0122024B1A70FFF771FF08BD7481FF1F024A137843F001031370704700590040704700BF08B500F08BFB0A4A137843F021
:400B8000200313700332137843F010031370043A137843F01003137000F07EFB1022024B1A6008BD9464004000E100E0014B1878704700BF67640040014B1878704700BFA5
:400BC00063640040034B1B7813F0020FFAD0024B187070476764004044640040014B1878704700BF5464004008B501E00A4B1B780A4B1B7813F0080FF8D100F049FB084B8E
:400C00001A7842F003021A701A7802F0FC021A7000F042FB08BD00BF54640040636400409464004010B507240C4B1C7010220C4B1A600C49042000F0F5FA2146042000F0C4
:400C400005FBFFF7D1FFFFF7B1FFFFF7B5FF0022054B1A700822043B1A7010BD8464004080E100E0890C00008764004008B5054B1B7823B9FFF7D6FF0122024B1A70FFF742
:400C800079FF08BD7581FF1F704700BF7222074B1A702022013B1A700622603B1A70472210331A70002252331A7070478565004010B500F0EDFA04460A4A137843F0200345
:400CC0001370013A137843F0100313700232137843F01003137000F075FA204600F0DCFA10BD00BF9565004008B5054B1B7823B9FFF7CCFF0122024B1A70FFF7D9FF08BD3F
:400D00007681FF1F014B1878704700BF46650040044B1B7813F0200F01D0012070470020704700BF64650040024B1B780BB1024B187070477681FF1F47640040034B1B78FC
:400D400013F0040FFAD1024B18707047666500404764004038B5074B1B782BB938BDFFF7EDFF0134A4B201E005460024285D0028F5D138BD7681FF1F014B1B681864704729
:400D800008ED00E04001C0B2014B1870704700BF00E400E00122014B1A60704700E100E00122014B1A60704780E100E010B50446FFF7F6FF2046FFF7DFFF0720FFF7E2FF29
:400DC000FFF7E8FF10BD00BF014B1B685864704708ED00E04001C0B2014B1870704700BF01E400E00222014B1A60704700E100E00222014B1A60704780E100E010B504465E
:400E0000FFF7F6FF2046FFF7DFFF0720FFF7E2FFFFF7E8FF10BD00BF38B50222114B1A7081220E3B1A70082202331A700F2511331D70002401331C704FF400420A4B1A6093
:400E40000721284600F002FA0849284600F0EAF91022074B1A70074B1C70074B1C70074B1C7038BDD649004080E100E0CD0E0000A081FF1FB181FF1FA481FF1FA581FF1F30
:400E800008B500F005FA064A137843F0040313701032137843F00403137000F0FDF908BDA543004008B5074B1B7823B9FFF7B4FF0122044B1A70FFF7E3FF4FF40042024BC4
:400EC0001A6008BD7881FF1F00E100E038B5A54B1C78A54B1B7813F0400F00F03A81E4B214F0010F00F01D819F4B1B78453B052B00F21481DFE813F0060082001201120186
:400F00000600DF0004F0DF0504F00A04082C42D1954B1B78DBB2452B35D1944B1B7813F0FF0F10D0924B1B681B78DBB2914A137004228C4B1A7001228F4B1A7046228A4BA9
:400F40001A702C46EDE08D4B1B7813F0020F0DD08B4A137843F00A0313706022824B1A704FF40042874B1A602C46DAE0864A137843F0100313701022844B1A700422023B41
:400F80001A702C46CDE00022764B1A704A22764B1A702C46C5E00A2C2BD1794A137843F0A0031370754B1B7813F0020F14D06E4B1B7813F0080F01D0092300E00A23704AFF
:400FC00011780B4313706022674B1A704FF400426C4B1A602C46A4E06B4A137843F0100313701022694B1A700422023B1A702C4697E0002000F0F4F82C4692E014F0020FE9
:4010000036D15D4B1A78D2B2584B1B78DBB29A4210D2594A1378DBB255490968CB5CDBB254490B7004214F4B197013780133DBB2137076E0514B1B7813F0020F0CD0504AAE
:40104000137843F00A0313706022474B1A704FF400424C4B1A6064E04B4A137843F0100313701022494B1A700422023B1A7058E0424B1B7813F0020F0CD0414A137843F0F3
:401080009A0313706022384B1A704FF400423D4B1A6046E03C4A137843F01003137010223A4B1A700422023B1A70354A137843F09003137035E0364A1378DBB235490868DE
:4010C0002C490978C9B2C15413780133DBB213701278D2B2304B1B78DBB29A4203D21022204B1A701DE0254B1B7813F0020F0CD0234A137843F00903137060221A4B1A70FF
:401100004FF400421F4B1A600BE01F4A137843F0100313700022134B1A7002E0002000F05FF814F0200F1CD00F4B1B7813F0080F01D0012300E00223114A11780B43137076
:40114000114A137803F0EF0313701022064B1A7038BD054B1B7813F0100F02D11022024B1A7038BDD7490040A081FF1FA681FF1FA881FF1FD8490040A581FF1FB081FF1F2A
:40118000B181FF1F80E100E0D6490040D9490040A481FF1FAC81FF1FB281FF1F034B1A7800F0F80010431870704700BF02410040034B1A7800F0F80010431870704700BF49
:4011C00006410040054A137843F0020313701032137843F002031370704700BFA243004001BE704710B5044605E0084B186800F047F8A4F50044B4F5004FF6D8034B586893
:4012000000FB04F000F03CF810BD00BFDC80FF1F08B5034B1B7A00FB03F000F031F808BDDC80FF1F70B504460E46074B1D681F2802D90020FFF7D4FF04F01F04103455F862
:40124000240045F8246070BD08ED00E038B504460D46072902D90020FFF7C2FF1F2C02D90020FFF7BDFF04F01F0000F1604000F564406D01EDB2057038BD00BF00000000B0
:401280000230800803D000BF01380046FCD17047EFF3108072B6704780F31088704700BF014B1868704700BF4C81FF1F0E4B70B51E460E4C0025E41AA410A54204D056F8C4
:4012C000253098470135F8E700F0ACFC084B094C1E46E41AA4100025A54204D056F8253098470135F8E770BD301C0000301C0000301C0000381C000010B5431E0A4491422C
:4013000004D011F8014B03F8014FF8E710BD03460244934202D003F8011BFAE7704700000CB430B5164B0C1E9DB01D6804DA8B232B604FF0FF301EE04FF40273ADF8143082
:401340000CBF234604F1FF33049307934FF6FF7302900690ADF81630209A21AB02A92846019300F069F8431CBCBF8B232B6014B1029B00221A701DB0BDE8304002B0704727
:401380004C81FF1F2DE9F0478E6882469E420C46914698463ED88A8912F4906F3AD02568096902236F1A656905EB450595FBF3F57B1C43449D4238BF1D4653050FD52946E9
:4013C00000F040FB064698B13A462169FFF794FFA38923F4906343F08003A38113E02A4600F08EFB064670B92169504600F0DEFA0C23CAF80030A3894FF0FF3043F0400320
:40140000A381BDE8F08726613E44266046466561ED1BA560464528BF464649463246206800F0A8FAA36800209B1BA36023681E442660BDE8F08700002DE9F04F9DB00393B4
:401440008B8980461C060D4616460DD50B695BB9402100F0F7FA2860286118B90C23C8F80030CDE040236B610023099320238DF82930DFF89CB130238DF82A3037463C4603
:4014800014F8013B1BB9B7EB060910D003E0252BF9D02746F3E74B46324629464046FFF771FF013000F0A780099B4B4409933B78002B00F0A08000234FF0FF32049307930F
:4014C000059206938DF853301A930126052221784E4800F041FA671C049B38B14B4A3C46801A06FA00F018430490EFE7D90644BF20228DF853201A0744BF2B228DF8532069
:4015000022782A2A03D0079A00210A200BE0039A111D12680391002A10DA524243F00200079204900BE027463B780134303B092B03D800FB02320121F5E701B107923B784B
:401540002E2B1ED17B782A2B0AD1039B02371A1D1B680392002BB8BF4FF0FF33059310E0002319460593781C0A2407463A780130303A092A03D804FB01210123F5E703B1E6
:40158000059103223978224800F0E6F940B14023CBEB000003FA00F0049B013718430490397806221B487E1C8DF8281000F0D4F988B1194B33B9039B073323F007030833C0
:4015C000039314E003AB00932A46144B04A94046AFF3008007E003AB00932A460F4B04A9404600F093F8B0F1FF3F824603D0099B5344099342E7AB895B0601D4099801E0F6
:401600004FF0FF301DB0BDE8F08F00BFEE1B0000F41B0000F81B000000000000851300002DE9F04791461F460A698B6806469342B8BF1346C9F8003091F843200C46DDF8E5
:40164000208012B10133C9F800302368990642BFD9F800300233C9F80030256815F0060510D104F1190A07E00123524639463046C04701301AD00135E368D9F800209B1A19
:401680009D42F1DB94F843302268003318BF012392060FD5E118302081F843005A1C94F845102244023382F8431003E04FF0FF30BDE8F08704F1430239463046C0470130B4
:4016C000F4D02268D9F80050E36802F00602042A08BF5D1B2269A3680CBF25EAE57500259342C4BF9B1AED184FF000091A344D4509D00123224639463046C0470130D5D069
:4017000009F10109F3E70020BDE8F0872DE9F04317460A7E85B06E2A984606460C460C9B01F1430E00F0AE8011D8632A22D009D8002A00F0BB80582A40F0CA8081F8452098
:40174000834955E0642A1ED0692A1CD0C0E0732A00F0B08009D86F2A2ED0702A40F0B8800A6842F020020A603EE0752A24D0782A3AD0ADE01A6801F14205111D196013689F
:4017800084F84230A8E021681A6811F0800F02D0111D196008E011F0400F02F10401196002D0B2F9003000E01368002B3CDA2D225B4284F8432037E021681A6811F0800F30
:4017C00002D0111D196007E011F0400F02F10401196001D0138800E01368227E5C496F2A14BF0A2208221BE078225A4984F845202268186812F0800F00F104051D6003D1FB
:40180000550601D5038800E00368D00744BF42F0200222601BB9226822F0200222601022002084F8430001E049490A226568002DA56008DB206820F0040020602BB9002D1E
:401840007DD175460CE0002B79D07546B3FBF2F002FB1033CB5C05F8013D03460028F5D1082A0BD12368DA0708D5236962689A42DEBF302305F8013C05F1FF35C5EB0E033D
:4018800023612EE008681A6810F0800F496903D0101D1860136808E010F0400F02F104001860136801D0198000E0196000232361754616E01A68111D1960156800216268A3
:4018C000284600F049F808B1401B6060636804E004F1420584F8422001232361002384F84330CDF800803B4603AA21463046FFF797FE013002D14FF0FF3026E023692A46A3
:4019000039463046C0470130F5D023689B0710D5002504F1190907E001234A4639463046C0470130E7D00135E368039A9B1A9D42F2DBE068039B9842B8BF184605E00B786C
:4019400004F1420584F842308AE705B0BDE8F083FF1B0000101C000010B5C9B202449042034605D01C7801308C42F8D1184610BD002010BD884210B501EB020301D8421E16
:401980000BE09842FBD28118D21AD34204D013F8014D01F8014DF8E710BD994204D011F8014B02F8014FF8E710BD000038B50546002944D051F8043C0C1F002BB8BFE4181A
:4019C00000F0D4F81E4A1368114613B96360146030E0A3420DD92268A018834201BF18685B681218226063600C6023E0A24203D813465A68002AF9D118681918A1420BD1ED
:401A00002168014458188242196013D110685268014419605A600DE002D90C232B6009E021686018824201BF106852680918216062605C602846BDE8384000F098B838BD9B
:401A40008081FF1F70B5CD1C25F0030508350C2D38BF0C25002D064601DBA94202D90C23336046E000F082F8234B1C681A462146A1B10B685B1B0ED40B2B03D90B60CC18DA
:401A8000CD501EE08C420BBF63684B681360636018BF0C4615E00C464968E9E7174C23681BB9304600F052F820602946304600F04DF8431C18D0C41C24F00304A0420DD1C0
:401AC0002560304600F053F804F10B00231D20F00700C31A0ED05A42E25070BD211A304600F034F80130EBD10C233360304600F03EF8002070BD00BF8081FF1F7C81FF1F45
:401B0000F8B5074615460E4621B91146BDE8F840FFF798BF1AB9FFF749FF2846F8BD00F027F885420ED929463846FFF78BFF044650B131462A46FFF7DFFB31463846FFF756
:401B400035FF01E03046F8BD2046F8BD38B5064C0023054608462360FEF71EFD431C02D1236803B12B6038BDB481FF1F7047704751F8040C0028BEBF091851F8043CC0184A
:401B80000438704700000000427974652072656365697665643A2025640A0000C84900401900005100401000305100404000F0510040100000000140000480040140800B18
:401BC00000140140000800400140000A004C0140000200500140200060520040B8060048060000040140C006004880004300232D302B2000686C4C0065666745464700308A
:401C0000313233343536373839414243444546003031323334353637383961626364656600000000F8B500BFF8BC08BC9E4670474D00000015060000F8B500BFF8BC08BC05
:401C40009E46704729000000581C0000C880FF1F88000000680000000000000012000000A5000000A5000000B881FF1F0000E02EC05D00001800000000366E01000000003B
:401C800000000000000000000000000000000000000000000000000000000000EC1B000000000000000000000000000000000000000000000000000000000000000000001D
:401CC00000000000000000000000000000000000000000000000000000000000EC80FF1F00000000000000000000000000000000000000000000000000000000000000005A
:401D000000000000000000000000000000000000000000000000000000000000000000000000000000000000000000000000000000000000000000000000000000000000A3
:401D40000000000000000000000000000000000000000000000000000000000000000000000000000000000000000000000000000000000000000000000000000000000063
:401D80000000000000000000000000000000000000000000000000000000000000000000000000000000000000000000000000000000000000000000000000000000000023
:401DC00000000000000000000000000000000000000000000000000000000000000000000000000000000000000000000000000000000000000000000000000000000000E3
:020000040003F7
:0200000480007A
:4000000004520040015B004004640040046500404902014034030140030401403C0501405C0601404807014004090140010B0140020D01404C140140481501405816014063
:400040004317014003190140051B0140064001400741014004420140044301400D45014006460140074701400448014013490140154C01400D4D01400550014003510140C7
:4000800008400940101511132721820D83788407874784388572860F870D06040C0116031E081F012608300132043408360237013E104030410445D046104720482A49FF19
:4000C0004AFF4BFF4DA04F0450185405580459045A045B045C205F01604062C06440654066C068C06AC06CC06EC0821083018B018D108F0291109B049C10A20DA408A6047C
:40010000A704A801AE02AF08B00AB104B210B303B406B508B603B710B980BE55BF44D420D604D804D904DB04DD20DF0102C00540061009400F2210AA1708180219201A8037
:400140001B041D401E5821602201232825402A802B103120320136803951450147084F015501571159025E485F0160816208630868AA69516B018240848087208D40C0A8FC
:40018000C2A1C42FCA0ACC15CE0DD0C0D6D1D80FE002E401D608DB04DD200004030A082009200AA210A8114019801AA41B102001210A290A2B803080310234043608395411
:4001C0004001420449114B044C044D205004512053805C205D805F06611062206404664668A8695478908F1292109B019D029ED0A508A608A801A908B120B401C007C20F21
:40020000C40FCA03CC09CE0ED00CD204D6F0D8F4DE0C0704080509081B051F0227092A012E0731013204330234023504360137083E443F104020410345D24610480B49FF46
:400240004AFF4BFF4DA04F0450185280580459045A045B045C025F01604062C06440654066C068C06AC06CC06EC08620890A8C108EAC90DC92229302940996D09A039C0C54
:400280009E719F01A304A414A810AA40AB01B101B304B41FB508B6E0B702BA80BF51C042C105C5EBC70CC813C9FFCAFFCBFFCEF0CF44D00CD441D804D904DA04DB04DC11AA
:4002C000DD21DF01E6C0EA40EB020004030205100AA60EC0102414081502164619801A0E1D5421812220231024402640271428402B042C042F283101328037903B203D084D
:400300003E103F044004430245044710482049804B024D024F0450085610572058085960610477808480871089808D4092B09404960299219A069B019C909D089E90A6209B
:40034000A70AC045C20FC4C6CA45CC39CE64D065D208D60ED802E602EE01E020E410E602EE01E860E002E4110B0113011801320135013E043F104006470449FF4A074BFFF1
:400380004C404D204EF04F05500854185604580459045A045B045D115F01604061A862406320800C81FF823384338508860C880F8A308B048C088D1093C394019580980240
:4003C00099189C039D3C9FC2A1C0A213A404A5E7A718A80CA93CABC1AC3FAD44B020B11FB21CB40FB520B7C0B802BA28BB02BF10D602D711D804D904DB04DC11DD10DF01D2
:4004000004040520060107400A080C080D200E091480160217191A201C041F162304261027422C102D202E812F143302360437513A103C803D023E0A3F10444046804918AD
:4004400053085B025E20624063446C157460760977188008829088408B4092099310942A9708988099109A509C509D089F50A121A460A708C0F0C2E2C4F0CAF0CCF1CEF4F1
:40048000D204D621D80DE008E220E405EA05EE040080010E04E70502070C08E70D0813021844190C1A311C011D0E1E0E202222512504290C2B022D013080321834603501B7
:4004C0003607370E3B023E043F10403441054201440246E0470C481849FF4AFF4BFF4C624DA04EF04F41500C5401580459045A045B045C115D115F016640670269106A30C8
:400500006B106D106E106F1286558C738D018E0C902A9101924496089C739E04A803AA44B00FB430B640B701B820B980BA02BE50BF40D280D405D804D904DB04DC01DF010D
:40054000000401080302042A0AA20D200E0110081110144019901B021D271E0121402541268227082C202F0530043104330135013750384039013B023C803D0A44944546D0
:400580004E025610570459025A405B045D915F087280904092EA93129404958099029A409B059C409E80A008A680A70EAC10B508C075C2CDC412CA70CCB1CED8D0F0D2104D
:4005C000D6FBE204EE02E204EA40EE02E008E280E405EA05EE043010330836443B40CCF0CE108410874097409C10A644A708E6403E10A644A708CE209610A644AB08EE8013
:400600005001510854405B025F806608820884408F80D407D606D801E4081A80A508B302B401C608E806871088108D08A508AA40E004E40882209610A644E22012201640A5
:4006400072207710822086408A409A209B10A640AA14AB10C430DC80DE20E010E480EAA0EE200B200F481080132016201F8064107B107F40808097609810A704AF40B70465
:40068000C20DC40EC601D801DE03EA021040700180018310874088409780A710AA20ABA0C408DC01E201000708050A0710031A0300FF010303C00000028400004300000075
:4006C000000000002001030400010808111006010C00131E00000C000000400011010E02C0400000C0000021C00000000000C0000F2030408000401F080002000000504471
:400700000206200001BCDF0E1FFFFFFF2200F00C8C10000000000224040424248188081100000000000000004001C001000000000000000000000000000000000000000077
:40074000830040808700830000000000B04B4B0040000000003F3F003F00C0000E0018010E00180100000000000000000000000000000000000000000000000000000000DB
:400780000000000000000000000000000000000000000000000000000000000000000000000000000000000000000000000000000000000000000000000000000000000039
:4007C00000000000000000000000000000000000000000000000000000000000000000000000000000000000000000000000000000000000000000000000000000000000F9
:4008000000000000000000000000000000000000000000000000000000000000000000000000000000000000000000000000000000000000000000000000000000000000B8
:400840000000000000000000000000000000000000000000000000000000000000000000000000000000000000000000000000000000000000000000000000000000000078
:0200000490006A
:0400000000004005B7
:0200000490105A
:04000000BC90ACAF55
:0200000490303A
:0200000084EF8B
:0200000490402A
:4000000000000000000000000000000000000000000000000000000000000000000000000000000000000000000000000000000000000000000000000000000000000000C0
:400040000000000000000000000000000000000000000000000000000000000000000000000000000000000000000000000000000000000000000000000000000000000080
:400080000000000000000000000000000000000000000000000000000000000000000000000000000000000000000000000000000000000000000000000000000000000040
:4000C0000000000000000000000000000000000000000000000000000000000000000000000000000000000000000000000000000000000000000000000000000000000000
:0200000490501A
:0C00000000012E16106900012E229558F8
:00000001FF